S01300005350495F4C4942524152592E73726563B1
S11300000C9434000C945D000C9451000C94510039
S11300100C9451000C9451000C9451000C94510018
S11300200C9451000C9451000C9451000C94510008
S11300300C9451000C9451000C9451000C945100F8
S11300400C9451000C9451000C9451000C945100E8
S11300500C9451000C9451000C9451000C945100D8
S11300600C9451000C94510011241FBECFEFD8E022
S1130070DEBFCDBF11E0A0E0B1E0EAEEF0E002C0E7
S113008005900D92A230B107D9F721E0A2E0B1E0CA
S113009001C01D92A230B207E1F70E9467000C94E0
S11300A073000C94000080E184B980E48CBD089551
S11300B00DB407FEFDCF8EB508951F920F920FB6B3
S11300C00F9211240F900FBE0F901F9018950E944D
S11300D05300CAE20E945800809300018230D1F795
S10D00E0C7B9C8B9F7CFF894FFCFF1
S10500EAFF0011
S9030000FC
