S00D000051564C5F4C2E7372656379
S11300000C9434000C943E000C943E000C943E007E
S11300100C943E000C943E000C943E000C943E0064
S11300200C943E000C943E000C943E000C943E0054
S11300300C943E000C943E000C943E000C943E0044
S11300400C943E000C943E000C943E000C943E0034
S11300500C943E000C943E000C943E000C943E0024
S11300600C943E000C943E0011241FBECFEFD8E048
S1130070DEBFCDBF0E94D6000C94DB000C940000C0
S11300806115710581F44130510519F521303105AF
S113009021F423E02093810024C0232B11F522E0D6
S11300A0209381001EC061307105D9F441155105BA
S11300B039F421303105A9F425E02093810011C0E1
S11300C04130510571F4232B61F424E02093810025
S11300D008C0452B31F42130310519F421E0209377
S11300E081001092850010928400E4E8F0E0208101
S11300F0318128173907D8F31092850010928400B3
S11301000895F8948CE284B981E58CBD08958EBD80
S11301100DB407FEFDCF08959EBD0DB407FEFDCFBF
S11301208EBD0DB407FEFDCF08958FEF8EBD0DB4C7
S113013007FEFDCF8EB590E0982F88272FEF2EBDB8
S11301400DB407FEFDCF2EB5822B08951F93CF93D8
S1130150DF93C8EED3E018E021E030E040E050E067
S113016061E070E080E090E00E94400088B1812767
S113017088B9219789F788B1C1E08C2788B980E4D0
S11301800E94870080E090E00E948C0080E090E074
S11301900E948C0085E90E9487000E94950088B126
S11301A0C827C8B9DF91CF911F9108950E9481009B
S10D01B00E94A600FFCFF894FFCFD1
S9030000FC
