S01700004763634170706C69636174696F6E332E7372656359
S11300000C9434000C943E000C943E000C943E007E
S11300100C943E000C943E000C943E000C943E0064
S11300200C943E000C943E000C943E000C943E0054
S11300300C943E000C943E000C943E000C943E0044
S11300400C943E000C943E000C943E000C943E0034
S11300500C943E000C943E000C943E000C943E0024
S11300600C943E000C943E0011241FBECFEFD8E048
S1130070DEBFCDBF0E9481000C94A5000C9400004B
S11300806115710581F44130510519F521303105AF
S113009021F423E02093810024C0232B11F522E0D6
S11300A0209381001EC061307105D9F441155105BA
S11300B039F421303105A9F425E02093810011C0E1
S11300C04130510571F4232B61F424E02093810025
S11300D008C0452B31F42130310519F421E0209377
S11300E081001092850010928400E4E8F0E0208101
S11300F0318182179307D9F71092850010928400FA
S113010008958FEF8AB987E084B98FE387B91FEF29
S1130110DFE3C7E01BB9D8B9C5B920E030E041E05E
S113012050E060E070E080E69AEE0E9440001BB868
S113013018B815B820E030E041E050E060E070E02D
S111014088EA91E60E944000E5CFF894FFCFD4
S9030000FC
