S013000047454E455241544F525F432E73726563C8
S11300000C9434000C943E000C943E000C943E007E
S11300100C943E000C943E000C943E000C943E0064
S11300200C943E000C943E000C943E000C943E0054
S11300300C943E000C943E000C943E000C943E0044
S11300400C943E000C943E000C943E000C943E0034
S11300500C943E000C943E000C943E000C943E0024
S11300600C943E000C943E0011241FBECFEFD8E048
S1130070DEBFCDBF0E944A000C9458000C940000CF
S113008065BD16BC96B59817E8F3109285001092DA
S11300908400089581E08AB9C1E0CBB965E084E6C3
S11300A00E9440001BB865E084E60E944000F5CF42
S10700B0F894FFCFEE
S9030000FC
