S0120000424F4F544C4F414445522E7372656327
S11338000C94341C0C943E1C0C943E1C0C943E1CD6
S11338100C943E1C0C943E1C0C943E1C0C943E1CBC
S11338200C943E1C0C943E1C0C943E1C0C943E1CAC
S11338300C943E1C0C943E1C0C943E1C0C943E1C9C
S11338400C943E1C0C943E1C0C943E1C0C943E1C8C
S11338500C943E1C0C943E1C0C943E1C0C943E1C7C
S11338600C943E1C0C943E1C11241FBECFEFD8E0D8
S1133870DEBFCDBF0E94401C0C944F1C0C94001C56
S113388081E087B991E088B1892788B9E7EAF1E650
S11338903197F1F700C000000C940200F4CFF894C3
S10538A0FFCF54
S9033800C4
