S0170000494C49393433315F4C43445F51564C2E73726563DA
S11300000C9434000C9451000C9451000C94510045
S11300100C9451000C9451000C9451000C94510018
S11300200C9451000C9451000C9451000C94510008
S11300300C9451000C9451000C9451000C945100F8
S11300400C9451000C9451000C9451000C945100E8
S11300500C9451000C9451000C9451000C945100D8
S11300600C9451000C94510011241FBECFEFD8E022
S1130070DEBFCDBF11E0A0E0B1E0E4EDF3E102C0EA
S113008005900D92A433B107D9F721E0A4E3B1E0C0
S113009001C01D92A433B207E1F70E9483070C94B8
S11300A0E8090C9400008FE087B987E088B90895C7
S11300B0CF93C82F0E945300F8948DE284B9CDBD2C
S11300C080E58CBDCF9108958EBD0DB407FEFDCFA4
S11300D008959EBD0DB407FEFDCF8EBD0DB407FE81
S11300E0FDCF08958EBD0DB407FEFDCF9EBD0DB4AA
S11300F007FEFDCF08956115710581F44130510566
S113010019F52130310521F423E02093810024C026
S1130110232B11F522E0209381001EC0613071056C
S1130120D9F44115510539F421303105A9F425E0FC
S11301302093810011C04130510571F4232B61F4E7
S113014024E02093810008C0452B31F4213031058F
S113015019F421E02093810010928500109284000C
S1130160E4E8F0E02081318128173907D8F31092B0
S11301708500109284000895CF93DF9398B1D4E062
S11301809D2798B998B1C2E09C2798B90E94640051
S113019088B1D827D8B988B1C827C8B9DF91CF9119
S11301A00895DF92EF92FF920F931F93CF93DF9303
S11301B0E62ED42ED52F28B194E0922798B998B181
S11301C0C2E09C2798B90E94640088B1C827C8B9C6
S11301D0F12CE114F10469F00D2D1D2FC0E0D0E0E5
S11301E0F80181918F010E9464002196CE15DF05EC
S11301F0B9F798B184E0892788B9DF91CF911F912D
S11302000F91FF90EF90DF900895CF93DF93CDB7D8
S1130210DEB7EE970FB6F894DEBF0FBECDBF81E018
S11302200E94BC0021E030E040E050E061E070E07A
S113023088E893E10E947B0085E0E1E1F1E0DE01E2
S1130240119601900D928A95E1F7AE014F5F5F4FD1
S113025065E08BEC0E94D1001E8281EC8F8380E3E9
S11302608887AE014A5F5F4F63E08FEC0E94D10044
S113027085E889871A8688E78B87AE01475F5F4FD9
S113028063E088EE0E94D1001C861D86AE01445FA7
S11302905F4F62E08AEE0E94D10084E68E8783E09D
S11302A08F8782E1888B81E8898BAE01425F5F4F43
S11302B064E08DEE0E94D10080E28A8BAE014E5E36
S11302C05F4F61E087EF0E94D10083E28B8BAE0128
S11302D04D5E5F4F61E080EC0E94D10080E18C8B29
S11302E0AE014C5E5F4F61E081EC0E94D10083EE71
S11302F08D8B88E28E8BAE014B5E5F4F62E085ECA6
S11303000E94D10086E88F8BAE01495E5F4F61E0A9
S113031087EC0E94D1008CE0888FAE01485E5F4F6D
S113032061E086E30E94D10085E5898FAE01475ED6
S11303305F4F61E08AE30E94D1001A8E88E18B8FBF
S1130340AE01465E5F4F62E081EB0E94D10088E01F
S11303508C8F82E88D8F87E28E8FAE01445E5F4F73
S113036063E086EB0E94D1001F8EAE01415E5F4FB9
S113037061E082EF0E94D10081E088A3AE01405E7B
S11303805F4F61E086E20E94D1008FE0E6E1F1E098
S1130390DE01919601900D928A95E1F7AE014F5DD1
S11303A05F4F6FE080EE0E94D1008FE0E5E2F1E064
S11303B0DE01D09601900D928A95E1F7AE01405D81
S11303C05F4F6FE081EE0E94D10081E10E94BC008A
S11303D021E030E040E050E061E070E088EE93E03E
S11303E00E947B0089E20E94BC0021E030E040E0F2
S11303F050E061E070E084EF91E00E947B00EE96B3
S11304000FB6F894DEBF0FBECDBFDF91CF91089534
S11304108F929F92AF92BF92CF92DF92EF92FF9210
S11304201F93CF93DF93EA019C01DB010E94CE0965
S11304304B015C0198B184E0892788B988B112E046
S1130440812788B98CE20E94640088B1182718B902
S113045081149104A104B10481F0C12CD12C760142
S1130460CE010E9472008FEFC81AD80AE80AF80A6F
S11304708C149D04AE04BF0499F798B182E08927D7
S113048088B9DF91CF911F91FF90EF90DF90CF90CB
S1130490BF90AF909F908F9008952F923F924F926C
S11304A05F926F927F928F929F92AF92BF92CF9200
S11304B0DF92EF92FF920F931F93CF93DF93CDB709
S11304C0DEB72D970FB6F894DEBF0FBECDBF6C011B
S11304D05B014A0139011D870C87EE2041F0EB8650
S11304E0AE01455F5F4F61E086E30E94D1007E82EA
S11304F06D8298868F82C60101979A838983C5018C
S113050001979C838B838AE289878BE28A874E01D9
S113051089E0880E911C8E010B5F1F4FFE013196FE
S11305203F0124016894222422F86894332431F88A
S113053088B1822588B988B1832588B9F40181916D
S11305404F010E94640088B1832588B9F801E190C5
S1130550F1908F01C7010E946900F301819191918B
S11305603F018E0D9F1D0E94690088B1822588B9C4
S113057004151505E9F64C855D85B501C6010E9493
S1130580080287E088B92D960FB6F894DEBF0FBE37
S1130590CDBFDF91CF911F910F91FF90EF90DF902E
S11305A0CF90BF90AF909F908F907F906F905F900F
S11305B04F903F902F9008952F923F924F925F92C9
S11305C06F927F928F929F92AF92BF92CF92DF925F
S11305D0EF920F931F93CF93DF93CDB7DEB7289796
S11305E00FB6F894DEBF0FBECDBF5901F901E61B6B
S11305F0F70B4817590734F09A01281B390B1A01D5
S11306006C0105C09C01241B350B1C016A01FF23EE
S11306103CF4F195E195F10944244A94542C03C027
S113062044244394512C33233CF4319521953109CE
S113063066246A94762C03C066246394712C2E1766
S11306403F0754F4922F832F9F01E92FF82F5C82E8
S11306504B821E821D8204C07E826D821C821B829C
S1130660C214D30421F02C143D04BCF576C0A616A4
S1130670B7060CF46FC07A8369830F2EFCE0EF2E6B
S1130680F02D00E010E029813A81A60161E070E0DC
S113069081E090E00E944D0229813A812F5F3F4F13
S11306A03A832983A216B30644F70F2EFCE0EF2EFB
S11306B0F02D00E010E029813A81A60161E070E0AC
S11306C081E090E00E944D0289819A8101979A838A
S11306D089838A159B054CF740C0CF01880F991F69
S11306E09A8389834C01821A930A78876F83540111
S11306F0821A930A0F2EFCE0EF2EF02D00E010E09A
S11307002F813885A60161E070E081E090E00E94CD
S11307104D02BB205CF0C60CD71C2F813885240DFC
S1130720351D38872F83A80CB91C10C08D819E817C
S1130730C80ED91E2F8138858B819C81280F391FC3
S113074038872F8329813A81A20EB31E2C143D04CD
S11307508CF603C07A836983A8CF28960FB6F894E1
S1130760DEBF0FBECDBFDF91CF911F910F91EF90F0
S1130770DF90CF90BF90AF909F908F907F906F90BD
S11307805F904F903F902F9008952F923F924F92F9
S11307905F926F927F928F929F92AF92BF92CF920D
S11307A0DF92EF920F931F93CF93DF9300D000D08B
S11307B000D0CDB7DEB721E030E0241B350B3E83FB
S11307C02D8355230CF491C01B01A82EB92EC82EDD
S11307D0D92E4A016894662461F8712C4424439408
S11307E0512C0F2EFCE0EF2EF02D00E010E0A101C3
S11307F0480D591D5A8349839A01A60161E070E0AE
S113080081E090E00E944D02960149815A8161E0A5
S113081070E081E090E00E944D0229813A81A501B7
S113082061E070E081E090E00E944D029601C10118
S1130830881999099C838B83AC0161E070E081E0A5
S113084090E00E944D022B813C81A60161E070E0A2
S113085081E090E00E944D02950149815A8161E056
S113086070E081E090E00E944D022B813C81A50163
S113087061E070E081E090E00E944D0295014B81BF
S11308805C8161E070E081E090E00E944D022D8186
S11308903E811216130644F0C201260D371D2D5F4A
S11308A03F4F3E832D8311C0C20131E0831A91086A
S11308B04D815E81460D571D9401220F331F421B4B
S11308C0530B4F5F5F4F5E834D835FEFC51AD50AAD
S11308D021E0A21AB1083FEF431A530A42E0640E22
S11308E0711C881699060CF07CCF26960FB6F894E6
S11308F0DEBF0FBECDBFDF91CF911F910F91EF905F
S1130900DF90CF90BF90AF909F908F907F906F902B
S11309105F904F903F902F9008952F923F924F9267
S11309205F926F927F928F929F92AF92BF92CF927B
S1130930EF92FF920F931F93CF93DF93EC015A0131
S1130940390128014701EC2C8401B2010E944D02B7
S11309509301A501BE01C2010E944D021E0124188B
S11309603508A501420D531D9301B201CE010E9429
S11309704D029301220D331DA501BE01C2010E9447
S11309804D02DF91CF911F910F91FF90EF90CF9087
S1130990BF90AF909F908F907F906F905F904F909B
S11309A03F902F9008952F923F924F925F926F92B3
S11309B07F928F929F92AF92BF92CF92DF92EF92EB
S11309C00F931F93CF93DF93CDB7DEB7A8970FB6DE
S11309D0F894DEBF0FBECDBF3B016A013A83298381
S11309E0669F9001679F300D300D1124A90160E0CE
S11309F070E04B8F5C8F6D8F7E8FBC01669FC00152
S1130A00679F900D900D11249C0140E050E02F8FC2
S1130A1038A349A35AA3A30160E070E04B835C832D
S1130A206D837E836F8D78A189A19AA1660F771F4C
S1130A30881F991F6B8B7C8B8D8B9E8B2B813C81AC
S1130A404D815E810E94BE096F87788B898B9A8B5A
S1130A502F8D38A149A15AA16B817C818D819E8102
S1130A600E94BE092B8D3C8D4D8D5E8D261B370B50
S1130A70480B590BCA01B9010E94C5084B015C011E
S1130A806F8D78A189A19AA10E94C50820E030E069
S1130A9040E85EE30E9451099B01AC01C501B40129
S1130AA00E9421080E948D084B015C0149805A80F4
S1130AB0460C571C0F2EFCE0EF2EF02D00EF1FE02C
S1130AC09201A60161E070E081E090E00E944D0295
S1130AD049815A81461957093A019A01A60161E0F0
S1130AE070E081E090E00E944D029201A60161E075
S1130AF070E081E090E00E944D029301A60161E064
S1130B0070E081E090E00E944D026F8578898989C8
S1130B109A8916161706180619060CF0C8C016018D
S1130B207FEF271A370AC60101979E878D872B8D81
S1130B303C8D4D8D5E8D220F331F441F551F2BA3FB
S1130B403CA34DA35EA329013A011F82188619868E
S1130B501A8649815A8158A74FA36F817885898560
S1130B609A856F5F7F4F8F4F9F4F6F8378878987F9
S1130B709A874F8A588E698E7A8EBB206CF4840CC7
S1130B80951CA61CB71C8B8D9C8DAD8DBE8D880EBF
S1130B90991EAA1EBB1E2EC02B813C814D815E81F5
S1130BA021503109410951092B833C834D835E83D4
S1130BB02B893C894D895E896B817C818D819E81E5
S1130BC00E94BE096F87788B898B9A8B840C951C45
S1130BD0A61CB71C4B8D5C8D6D8D7E8D840E951E71
S1130BE0A61EB71E6F85788989899A89861A970AFD
S1130BF0A80AB90A0F2EFCE0EF2EF02D00EF1FE03B
S1130C008B819C81AFA1B8A58A0F9B1F9A8389838E
S1130C109C01A10161E070E081E090E00E944D023E
S1130C202FA138A54B815C81241B350B3C872B8776
S1130C30A10161E070E081E090E00E944D02298111
S1130C403A814D855E8561E070E081E090E00E942C
S1130C504D022B853C854D855E8561E070E081E029
S1130C6090E00E944D025FEF251A350A6D857E855E
S1130C70615071097E876D878BA19CA1ADA1BEA136
S1130C80480E591E6A1E7B1E2F85388949895A8948
S1130C906F89788D898D9A8D6217730784079507FC
S1130CA00CF45BCF8FA198A59A83898304C01F821B
S1130CB0188619861A866F81788589859A850E9497
S1130CC0C50820E030E040E05FE30E9421084B01CA
S1130CD05C014B805C806D807E8091E0491A5108F4
S1130CE0610871086B8D7C8D8D8D9E8D0E94C50869
S1130CF0A50194010E945109A50194010E94510982
S1130D004B015C012F8D38A149A15AA1C301B20145
S1130D100E94BE099B01AC01C301B2010E94BE093D
S1130D200E94C5089B01AC01C501B4010E942108C1
S1130D304B015C012B8D3C8D4D8D5E8D6F8D78A1AB
S1130D4089A19AA10E94BE090E94C5089B01AC0119
S1130D50C501B4010E9420080E948D084B015C016A
S1130D602B813C814D815E811216130614061506F3
S1130D700CF0B1C04B8D5C8D6D8D7E8D440F551F75
S1130D80661F771F4B8F5C8F6D8F7E8F09811A8151
S1130D90040D151D29803A80241835082B893C89B7
S1130DA04D895E89C301B2010E94BE092B013C0139
S1130DB01C870B876B817C818D819E8161507109B9
S1130DC0810991096B837C838D839E831814190494
S1130DD01A041B046CF48F8D98A1A9A1BAA1880EE2
S1130DE0991EAA1EBB1E84189508A608B70822C01F
S1130DF02F81388549855A852F5F3F4F4F4F5F4F6D
S1130E002F83388749875A876B8D7C8D8D8D9E8D76
S1130E100E94BE09860E971EA81EB91E4F8D58A1AA
S1130E2069A17AA1840E951EA61EB71E8418950882
S1130E30A608B7080F2EFCE0EF2EF02D00EF1FE000
S1130E402B853C856F8178856C0D7D1D7A83698344
S1130E50AB0161E070E081E090E00E944D029101FD
S1130E6049815A8161E070E081E090E00E944D0286
S1130E702B853C85C601AF81B8858A1B9B0B9A8361
S1130E808983AC0161E070E081E090E00E944D0252
S1130E90910149815A8161E070E081E090E00E9413
S1130EA04D022B853C85215031093C872B873FEF30
S1130EB0231A330A4B895C896D897E89441A550A41
S1130EC0660A770A6B817C818D819E81672B682BF2
S1130ED0692B09F06FCFA8960FB6F894DEBF0FBE4A
S1130EE0CDBFDF91CF911F910F91EF90DF90CF9005
S1130EF0BF90AF909F908F907F906F905F904F9036
S1130F003F902F90089581E00E94580021E030E046
S1130F1040E050E061E070E088EE93E00E947B00E6
S1130F200E9405010F2EFCE0EF2EF02D0FEF1FEFB6
S1130F3020E030E040E050E060E471E080EF90E0D9
S1130F400E944D02C12CE12CF12C00E010E02DE7B1
S1130F5030E048EC50E064E670E082E390E00E9408
S1130F60D30440E450E064E670E084E690E00E943C
S1130F70C50346E350E064E670E084E690E00E9436
S1130F80C5034CE250E064E670E084E690E00E9421
S1130F90C50342E250E064E670E084E690E00E941B
S1130FA0C50348E150E064E670E084E690E00E9406
S1130FB0C50324E630E044E650E062E370E08AE0F2
S1130FC090E00E94DC022EE130E048EC50E064E660
S1130FD070E084E690E00E94DC022EE130E048EC10
S1130FE050E062E370E08AE090E00E94DC022EE1CF
S1130FF030E042E350E06EE170E088EC90E00E9463
S1131000DC020F2EFCE0CF2EF02D01E010E024E6F0
S113101030E044E650E062E370E082E390E00E9456
S11310208D0424E630E044E650E064E670E084E6B3
S113103090E00E948D0489E190E00197F1F7FBCFE5
S11310405058BB27AA270E9438080C9417090E94FD
S1131050090938F00E94100920F039F49F3F19F46F
S113106026F40C9406090EF4E095E7FB0C940009B1
S1131070E92F0E94280958F3BA17620773078407F7
S1131080950720F079F4A6F50C944A090EF4E0953E
S11310900B2EBA2FA02D0B01B90190010C01CA012E
S11310A0A0011124FF27591B99F0593F50F4503ED9
S11310B068F11A16F040A22F232F342F4427585FCB
S11310C0F3CF469537952795A795F0405395C9F7E3
S11310D07EF41F16BA0B620B730B840BBAF091509B
S11310E0A1F0FF0FBB1F661F771F881FC2F70EC03A
S11310F0BA0F621F731F841F48F48795779567950D
S1131100B795F7959E3F08F0B0CF9395880F08F0F8
S11311109927EE0F9795879508950E9494086894EF
S1131120B1110C944B0908950E94300988F09F571F
S113113098F0B92F9927B751B0F0E1F0660F771FF7
S1131140881F991F1AF0BA95C9F714C0B13091F0ED
S11311500E944A09B1E008950C944A09672F782F38
S11311608827B85F39F0B93FCCF3869577956795B2
S1131170B395D9F73EF490958095709561957F4F1E
S11311808F4F9F4F0895E89409C097FB3EF49095C4
S11311908095709561957F4F8F4F9F4F9923A9F04C
S11311A0F92F96E9BB279395F695879577956795DB
S11311B0B795F111F8CFFAF4BB0F11F460FF1BC01F
S11311C06F5F7F4F8F4F9F4F16C0882311F096E9B2
S11311D011C0772321F09EE8872F762F05C0662360
S11311E071F096E8862F70E060E02AF09A95660F19
S11311F0771F881FDAF7880F9695879597F90895D2
S113120097F99F6780E870E060E008959FEF80ECB5
S1131210089500240A941616170618060906089558
S113122000240A9412161306140605060895092EBE
S11312300394000C11F4882352F0BB0F40F4BF2B2D
S113124011F460FF04C06F5F7F4F8F4F9F4F08956D
S113125057FD9058440F551F59F05F3F71F0479563
S1131260880F97FB991F61F09F3F79F08795089548
S1131270121613061406551FF2CF4695F1DF08C067
S1131280161617061806991FF1CF86957105610584
S113129008940895E894BB2766277727CB0197F92C
S11312A008950E9464090C9417090E94090938F0F2
S11312B00E94100920F0952311F00C9400090C945D
S11312C0060911240C944B090E94280970F3959F78
S11312D0C1F3950F50E0551F629FF001729FBB2729
S11312E0F00DB11D639FAA27F00DB11DAA1F649FC5
S11312F06627B00DA11D661F829F2227B00DA11D78
S1131300621F739FB00DA11D621F839FA00D611DFD
S1131310221F749F3327A00D611D231F849F600D1E
S1131320211D822F762F6A2F11249F5750409AF047
S1131330F1F088234AF0EE0FFF1FBB1F661F771FD3
S1131340881F91505040A9F79E3F510580F00C949E
S113135000090C944B095F3FE4F3983ED4F386955F
S113136077956795B795F795E7959F5FC1F7FE2B3E
S1131370880F911D9695879597F90895DB018F93B2
S11313809F930E94DD09BF91AF91A29F800D911D93
S1131390A39F900DB29F900D11240895A29FB001B8
S11313A0B39FC001A39F700D811D1124911DB29F95
S11313B0700D811D1124911D08950E94CE09A59FD1
S11313C0900DB49F900DA49F800D911D112408953C
S10713D0F894FFCFBB
S11313D42B2B0F010601000A006400E8031027FF09
S11313E4FF392C0034020F312B0C0E084EF1370751
S11313F410030E090000E01403110731C148080F5B
S10714040C31360F5E
S9030000FC
