:100000000C9462000C948A000C948A000C948A0070
:100010000C948A000C948A000C948A000C948A0038
:100020000C948A000C948A000C948A000C948A0028
:100030000C948A000C948A000C948A000C948A0018
:100040000C9412040C948A000C947F020C94B1025C
:100050000C948A000C948A000C948A000C948A00F8
:100060000C948A000C948A00000000080002010031
:100070000003040700000000000000000102040863
:100080001020408001020408102001020408102002
:10009000040404040404040402020202020203032E
:1000A00003030303000000002300260029000000D2
:1000B0000000250028002B0000000000240027007D
:1000C0002A00E10211241FBECFEFD8E0DEBFCDBF72
:1000D00011E0A0E0B1E0EAEFFBE002C005900D9274
:1000E000A233B107D9F721E0A2E3B1E001C01D922C
:1000F000A93DB207E1F710E0C2E6D0E004C02197C5
:10010000FE010E94F505C136D107C9F70E940F0311
:100110000C94FB050C940000CF93DF9361E0809179
:100120000A010E943E0561E0809108010E943E059F
:1001300061E0809106010E943E0560E0809102012D
:100140000E943E0561E0809104010E943E0560E04E
:10015000809100010E943E05CCE0D1E060E0888102
:100160000E943E0560E08A810E943E0526E040E84C
:1001700055E260E070E083E391E0DF91CF910C9471
:100180001A0210923201809102010E94A905019782
:1001900071F580910C010E94F8048093320161E0B6
:1001A00080910A010E947A056091320170E080E03E
:1001B00090E00E94810460E080910A010E947A052B
:1001C0006091320170E080E090E00E94810460E084
:1001D000809106010E947A0580910C010E94F8042A
:1001E0004AE050E0BC0183E391E00C94000461E03C
:1001F000809106010E947A0560E080910A010C94CA
:100200007A0510923201809100010E94A9050197A0
:1002100071F580910E010E94F8048093320161E033
:10022000809108010E947A056091320170E080E0BF
:1002300090E00E94810460E0809108010E947A05AC
:100240006091320170E080E090E00E94810460E003
:10025000809104010E947A0580910E010E94F804A9
:100260004AE050E0BC0183E391E00C94000461E0BB
:10027000809104010E947A0560E0809108010C944D
:100280007A050E94C1000C940101FC01918D228D20
:10029000892F90E0805C9F4F821B91098F73992773
:1002A0000895FC01918D828D981731F0828DE80FB1
:1002B000F11D858D90E008958FEF9FEF0895FC016B
:1002C000918D828D981761F0828DDF01A80FB11D8D
:1002D0005D968C91928D9F5F9F73928F90E00895B1
:1002E0008FEF9FEF0895FC01538D448D252F30E053
:1002F000842F90E0821B930B541710F0CF96089533
:100300000197089587ED92E0892B49F080E090E015
:10031000892B29F00E94D70281110C9400000895C6
:10032000FC01848DDF01A80FB11DA35ABF4F2C9192
:10033000848D90E001968F739927848FA689B78961
:100340002C93A089B1898C9180648C93938D848D3A
:10035000981306C00288F389E02D80818F7D808309
:100360000895EF92FF920F931F93CF93DF93EC01C9
:1003700081E0888F9B8D8C8D981305C0E889F98961
:10038000808185FD24C0F62E0B8D10E00F5F1F4F7E
:100390000F731127E02E8C8DE8120CC00FB607FCEE
:1003A000FACFE889F989808185FFF5CFCE010E94D7
:1003B0009001F1CF8B8DFE01E80FF11DE35AFF4F45
:1003C000F0820B8FEA89FB898081806207C0EE8909
:1003D000FF896083E889F98980818064808381E076
:1003E00090E0DF91CF911F910F91FF90EF900895D2
:1003F000CF93DF93EC01888D8823C9F0EA89FB89CC
:10040000808185FD05C0A889B9898C9186FD0FC0C2
:100410000FB607FCF5CF808185FFF2CFA889B98997
:100420008C9185FFEDCFCE010E949001E7CFDF9147
:10043000CF910895CF92DF92EF92FF921F93CF93C7
:10044000DF93EC016A017B01122FE889F98982E0D0
:1004500080834115514E61057105B1F060E079E08E
:100460008DE390E0A70196010E94D305DA01C9014E
:100470000197A109B109B695A795979587959C0114
:10048000211580E13807A8F0E889F989108260E831
:1004900074E88EE190E0A70196010E94D305DA018D
:1004A000C9010197A109B109B695A79597958795B7
:1004B0009C01EC85FD853083EE85FF852083188EB9
:1004C000EC89FD891083EA89FB89808180618083C2
:1004D000EA89FB89808188608083EA89FB89808141
:1004E00080688083EA89FB8980818F7D8083DF91AA
:1004F000CF911F91FF90EF90DF90CF9008951F92C2
:100500000F920FB60F9211242F938F939F93EF9317
:10051000FF93E0914301F09144018081E091490112
:10052000F0914A0182FD12C0908180914C018F5F51
:100530008F7320914D01821751F0E0914C01F0E052
:10054000ED5CFE4F958F80934C0101C08081FF913F
:10055000EF919F918F912F910F900FBE0F901F9051
:1005600018951F920F920FB60F9211242F933F935D
:100570004F935F936F937F938F939F93AF93BF93AB
:10058000EF93FF9383E391E00E949001FF91EF913D
:10059000BF91AF919F918F917F916F915F914F919B
:1005A0003F912F910F900FBE0F901F90189583E3EE
:1005B00091E00E94450121E0892B09F420E0822F7F
:1005C0000895E3E3F1E01382128288EE93E0A0E065
:1005D000B0E084839583A683B78385E191E091831E
:1005E000808385EC90E09587848784EC90E0978702
:1005F000868780EC90E0918B808B81EC90E0938BF0
:10060000828B82EC90E0958B848B86EC90E0978BCC
:10061000868B118E128E138E148E089508950E946B
:10062000BD040E940E030E948C00C2E8D1E00E942B
:1006300041012097E1F30E948201F9CFCF92DF922E
:10064000EF92FF920F931F93CF93DF936C017A0188
:100650008B01C0E0D0E0CE15DF0581F0D8016D91AF
:100660008D01D601ED91FC910190F081E02DC60144
:100670000995892B11F02196EECF7E01C701DF91FC
:10068000CF911F910F91FF90EF90DF90CF90089541
:100690006115710579F0FB0101900020E9F73197B0
:1006A000AF01461B570BDC01ED91FC910280F381F9
:1006B000E02D099480E090E00895DC01ED91FC913B
:1006C0000190F081E02D099463E271E00C944803FD
:1006D0008F929F92AF92BF92EF92FF920F931F93D0
:1006E000CF93DF93CDB7DEB7A1970FB6F894DEBFF7
:1006F0000FBECDBF7C01FA01CB0119A2223008F454
:100700002AE08E010F5D1F4F822E912CA12CB12C5F
:10071000BF01A50194010E94D305F901CA0101504E
:1007200011096A3010F4605D01C0695CD8016C93F6
:10073000232B242B252B61F7B801C7010E94480306
:10074000A1960FB6F894DEBF0FBECDBFDF91CF915B
:100750001F910F91FF90EF90BF90AF909F908F905F
:100760000895CF92DF92EF92FF920F931F93CF9352
:10077000DF932115310581F4DC01ED91FC910190AD
:10078000F081E02D642FDF91CF911F910F91FF90A9
:10079000EF90DF90CF9009942A30310501F577FF73
:1007A0001DC06A017B01EC016DE20E945D038C01BA
:1007B00044275527BA014C195D096E097F092AE0C3
:1007C000CE010E946803800F911FDF91CF911F918E
:1007D0000F91FF90EF90DF90CF9008952AE0DF9186
:1007E000CF911F910F91FF90EF90DF90CF900C94DD
:1007F00068039A01AB01770F660B770B0C94B1037A
:100800000F931F93CF93DF93EC010E94F9038C01A8
:10081000CE010E946403800F911FDF91CF911F9141
:100820000F9108951F920F920FB60F9211242F93DC
:100830003F938F939F93AF93BF938091D1019091FA
:10084000D201A091D301B091D4013091D00123E025
:10085000230F2D3720F40196A11DB11D05C026E8F8
:10086000230F0296A11DB11D2093D0018093D101C9
:100870009093D201A093D301B093D4018091D5017C
:100880009091D601A091D701B091D8010196A11DF8
:10089000B11D8093D5019093D601A093D701B09359
:1008A000D801BF91AF919F918F913F912F910F9060
:1008B0000FBE0F901F9018953FB7F8948091D50107
:1008C0009091D601A091D701B091D80126B5A89BEF
:1008D00005C02F3F19F00196A11DB11D3FBFBA2FD2
:1008E000A92F982F8827820F911DA11DB11DBC0132
:1008F000CD0142E0660F771F881F991F4A95D1F7F7
:1009000008958F929F92AF92BF92CF92DF92EF9213
:10091000FF926B017C010E945C044B015C01C114DD
:10092000D104E104F10401F10E94D2050E945C04AB
:10093000DC01CB0188199909AA09BB09883E9340BB
:10094000A105B10560F321E0C21AD108E108F10860
:1009500088EE880E83E0981EA11CB11CC114D1043E
:10096000E104F10419F7DBCFFF90EF90DF90CF9017
:10097000BF90AF909F908F900895789484B58260D7
:1009800084BD84B5816084BD85B5826085BD85B533
:10099000816085BDEEE6F0E0808181608083E1E8E2
:1009A000F0E010828081826080838081816080831A
:1009B000E0E8F0E0808181608083E1EBF0E080811D
:1009C00084608083E0EBF0E0808181608083EAE7EF
:1009D000F0E0808184608083808182608083808178
:1009E000816080838081806880831092C100089537
:1009F0008E3008F08E502091100190E4299F9001D4
:100A000011248770822B80937C0080917A0080640F
:100A100080937A0080917A0086FDFCCF80917800E7
:100A20002091790090E0922B0895833081F028F492
:100A3000813099F08230A1F008958730A9F0883094
:100A4000B9F08430D1F4809180008F7D03C0809113
:100A500080008F7780938000089584B58F7702C0DF
:100A600084B58F7D84BD08958091B0008F7703C0D9
:100A70008091B0008F7D8093B0000895CF93DF9375
:100A800090E0FC01E458FF4F2491FC01E057FF4F38
:100A90008491882361F190E0880F991FFC01E8544C
:100AA000FF4FC591D491FC01E255FF4FA591B49140
:100AB000611109C09FB7F8948881209582238883AB
:100AC000EC912E230BC0623061F49FB7F8948881BB
:100AD000322F309583238883EC912E2B2C939FBF4C
:100AE00006C08FB7F894E8812E2B28838FBFDF9143
:100AF000CF9108951F93CF93DF93282F30E0F90112
:100B0000E859FF4F8491F901E458FF4FD491F9015E
:100B1000E057FF4FC491CC23C1F0162F81110E94E2
:100B20001505EC2FF0E0EE0FFF1FE255FF4FA591EA
:100B3000B4919FB7F894111104C08C91D095D8232B
:100B400002C0EC91DE2BDC939FBFDF91CF911F9110
:100B50000895CF93DF93282F30E0F901E859FF4F34
:100B60008491F901E458FF4FD491F901E057FF4F08
:100B7000C491CC2391F081110E941505EC2FF0E077
:100B8000EE0FFF1FEC55FF4FA591B491EC91ED23B3
:100B900081E090E021F480E002C080E090E0DF910D
:100BA000CF9108950895A1E21A2EAA1BBB1BFD0147
:100BB0000DC0AA1FBB1FEE1FFF1FA217B307E4073C
:100BC000F50720F0A21BB30BE40BF50B661F771F94
:100BD000881F991F1A9469F7609570958095909574
:100BE0009B01AC01BD01CF010895EE0FFF1F0590E1
:0A0BF000F491E02D0994F894FFCF72
:100BFA0004000500060007000C000D000E000F009F
:100C0A000100000000B1011E037301F80145015FF4
:100C1A000151010D0A006E616E00696E66006F7601
:020C2A00660062
:00000001FF
