S02B0000484142494C49544143494F4E5F44455F494E54455252555043494F4E45535F474C4F42414C45532E16
S11300000C9434000C9451000C9451000C94510045
S11300100C9451000C9451000C9451000C94510018
S11300200C9451000C9451000C9451000C94510008
S11300300C9451000C9451000C9451000C945100F8
S11300400C9451000C9451000C9451000C945100E8
S11300500C9451000C9451000C9451000C945100D8
S11300600C9451000C94510011241FBECFEFD8E022
S1130070DEBFCDBF11E0A0E0B1E0EAE6F1E002C0EE
S113008005900D92A030B107D9F721E0A0E0B1E0CE
S113009001C01D92A030B207E1F70E94A0000C94A9
S11300A0B3000C9400006115710581F441305105D1
S11300B019F52130310521F423E02093810024C077
S11300C0232B11F522E0209381001EC061307105BD
S11300D0D9F44115510539F421303105A9F425E04D
S11300E02093810011C04130510571F4232B61F438
S11300F024E02093810008C0452B31F421303105E0
S113010019F421E02093810010928500109284005C
S1130110E4E8F0E02081318128173907D8F3109200
S1130120850010928400089584B1886284B98CB5E6
S113013081658CBD08958EBD0DB407FEFDCF089575
S113014087B18F6787B921E030E040E050E061E09B
S113015070E080ED97E00E9453000E9494008FE8C5
S10D01600E949B00FFCFF894FFCF2C
S9030000FC
