S0100000524F564F544943412E73726563AD
S11300000C9434000C9451000C9451000C94510045
S11300100C9451000C9451000C9451000C94510018
S11300200C9451000C9451000C9451000C94510008
S11300300C9451000C9451000C9451000C945100F8
S11300400C9451000C9451000C9451000C945100E8
S11300500C9451000C9451000C9451000C945100D8
S11300600C9451000C94510011241FBECFEFD8E022
S1130070DEBFCDBF11E0A0E0B1E0E0E0F4E002C0FB
S113008005900D92A030B107D9F721E0A0E0B1E0CE
S113009001C01D92A730B207E1F70E9488000C94BA
S11300A0FE010C94000081E080937C0080EC80933E
S11300B07A00EAE7F0E0808186FDFDCFEAE7F0E030
S11300C080818F778083609178007091790070933C
S11300D003016093020180E090E00E9403012FEE8F
S11300E03FEF43E35EE30E9469010E94D4007093F2
S11300F0010160930001ECE7F0E0808110828091BF
S1130100000190910101089514B88DE08AB9089511
S11301100E94840083B180930401823031F501C0D0
S11301205B9A0E9453000597D9F75B982FE38DE003
S113013093E0215080409040E1F700C0000001C0EE
S11301405A9A0E94530087399105D1F75A9883ED42
S113015090E30197F1F700C0000001C05B9A0E9490
S113016053000597D9F75B98D5CF93B190930601C7
S113017083B180930501883021F4943011F05B9AA7
S113018001C05B9883ED90E30197F1F700C0000094
S113019080910601843031F480910501883011F09A
S11301A05A9AB8CF5A98B6CF0E94480188F09F5700
S11301B098F0B92F9927B751B0F0E1F0660F771F87
S11301C0881F991F1AF0BA95C9F714C0B13091F07D
S11301D00E946201B1E008950C946201672F782FA8
S11301E08827B85F39F0B93FCCF386957795679542
S11301F0B395D9F73EF490958095709561957F4FAE
S11302008F4F9F4F0895E89409C097FB3EF4909553
S11302108095709561957F4F8F4F9F4F9923A9F0DB
S1130220F92F96E9BB279395F6958795779567956A
S1130230B795F111F8CFFAF4BB0F11F460FF1BC0AE
S11302406F5F7F4F8F4F9F4F16C0882311F096E941
S113025011C0772321F09EE8872F762F05C06623EF
S113026071F096E8862F70E060E02AF09A95660FA8
S1130270771F881FDAF7880F9695879597F9089561
S113028057FD9058440F551F59F05F3F71F0479543
S1130290880F97FB991F61F09F3F79F08795089528
S11302A0121613061406551FF2CF4695F1DF08C047
S11302B0161617061806991FF1CF86957105610564
S11302C008940895E894BB2766277727CB0197F90C
S11302D008950E947C010C94ED010E94DF0138F026
S11302E00E94E60120F0952311F00C94D6010C94A1
S11302F0DC0111240C9463010E94400170F3959F6A
S1130300C1F3950F50E0551F629FF001729FBB2708
S1130310F00DB11D639FAA27F00DB11DAA1F649FA4
S11303206627B00DA11D661F829F2227B00DA11D57
S1130330621F739FB00DA11D621F839FA00D611DDD
S1130340221F749F3327A00D611D231F849F600DFE
S1130350211D822F762F6A2F11249F5750409AF027
S1130360F1F088234AF0EE0FFF1FBB1F661F771FB3
S1130370881F91505040A9F79E3F510580F00C947E
S1130380D6010C9463015F3FE4F3983ED4F3869561
S113039077956795B795F795E7959F5FC1F7FE2B1E
S11303A0880F911D9695879597F9089597F99F67FA
S11303B080E870E060E008959FEF80EC08950024E9
S11303C00A941616170618060906089500240A94B6
S11303D012161306140605060895092E0394000C3C
S11303E011F4882352F0BB0F40F4BF2B11F460FFCB
S11303F004C06F5F7F4F8F4F9F4F0895F894FFCFD6
S9030000FC
