:100000000C9470060C948D060C948D060C948D0641
:100010000C948D060C948D060C948D060C948D0614
:100020000C948D060C948D060C948D060C948D0604
:100030000C948D060C948D060C948D060C948D06F4
:100040000C948D060C948D060C948D060C948D06E4
:100050000C948D060C948D060C948D060C948D06D4
:100060000C948D060C948D064D454E552020200095
:1000700053455454494E4700494E4943494F200087
:1000800005FF0FFF0F0108FF0FFF0F00000000002A
:100090000000000000000000000000000000000060
:1000A000000A0000C001E000E000E000E001C00143
:1000B000C001C001E00000000000000000000000DE
:1000C00000000606C0FEFCFEFFFC7F0003000300EC
:1000D0000000000000000000000000000000000020
:1000E000000000030000FEFFFEFF00000000000013
:1000F0000000000000000000000000000000000000
:10010000000000000600030003FC7FFEFFFEFC066B
:10011000C00000000000000000000000000000001F
:100120000000000000080000301C301E301FF01BD3
:10013000F019F01830180000000000000000000066
:100140000000000000000910C0F0C0F0C7C0FF00B0
:10015000FCC03FF00FF00130000000000000000084
:10016000000000000000000B10103018701EE00F9F
:10017000C0078003C007E00F701E30181010000089
:1001800000000000000000000F1000F000F007E089
:100190001F001E000FF003F000F003000F001EE030
:1001A0001FF007F00010000000091000F000F00739
:1001B000C01F001CE01FF007F0001000000000004E
:1001C000000000000000000000000A0000F00FF036
:1001D0001FF01F001800180008F01FF01FF01F008C
:1001E0000000000000000000000000063000FC0FCE
:1001F000FC1FFE1F30183018000000000000000037
:10020000000000000000000000000000090000E005
:1002100008F019F01B90139013B01F301F200E0030
:1002200000000000000000000000000000070000C7
:10023000F01FF01FF01F2000300010000000000031
:1002400000000000000000000000000000000A00A4
:1002500000C007E00FF01F30183018200CF0FFF03E
:10026000FFF0FF0000000000000000000000000A96
:100270000000F0FFF0FFF0FF600C30183018F01FA6
:10028000E00FC007000000000000000000000000B8
:100290000A0000C007E00FF01F701C3018701CF03F
:1002A0001FE00FC007000000000000000000000079
:1002B000000A0000F01FF01FF01F20003000300087
:1002C000F01FF01FE01F0000000000000000000011
:1002D00000000E0000F01FF01FF01F20003000F0A3
:1002E0001FF01FE01F20003000F01FF01FE01F0074
:1002F000000000040000FE1FFE1FFE1F00000000A3
:1003000000000000000000000000000000000000ED
:10031000000000000B0000FE1FFE1FFE1FC003E0D8
:1003200001F007F01F301E101C001000000000003C
:1003300000000000000400C0F6FFF6FFF67F00009A
:1003400000000000000000000000000000000000AD
:10035000000000000000040000F61FF61FF61F005A
:10036000000000000000000000000000000000008D
:10037000000000000000000A0000FE1FFE1FFE1F1C
:10038000200030003000F01FF01FE01F00000000D0
:1003900000000000000000000A0000C047E0CFF0AD
:1003A000DF30D830D860CCF0FFF07FF03F000000A5
:1003B000000000000000000000063000FC1FFE1FCF
:1003C000FE1F3600360000000000000000000000A4
:1003D000000000000000000000000A0000C007E06C
:1003E0000FF01FB01DB019B019F01DE00DC00500D1
:1003F00000000000000000000000000A0000C0072C
:10040000E00FF01F30183018600CFE1FFE1FFE1F9B
:100410000000000000000000000000000A0000C012
:1004200007E00FF01F701C30183018701C600C4073
:10043000040000000000000000000000000A0000AE
:10044000FE1FFE1FFE1F600C30183018F01FE00F5B
:10045000C0070000000000000000000000000A00CB
:1004600000400E601F701F301BB019B009F01FF064
:100470001FE01F000000000000000000000000045A
:100480000000020006000400000000000000000060
:10049000000000000000000000000000000000005C
:1004A0000800400040004000400040004000400084
:1004B00040000000000000000000000000000000FC
:1004C00000090000400070007C001E001E007C003F
:1004D000700040000000000000000000000000006C
:1004E00000000506C006C0FEFFFEFFFEFF00000084
:1004F00000000000000000000000000000000000FC
:1005000000000004060078008007001800000000CA
:1005100000000000000000000000000000000000DB
:1005200000000000060000FEFFFEFFFEFF06C00602
:10053000C0000000000000000000000000000000FB
:1005400000000000000A0000001C061E061FC61B5B
:10055000E619F6183E181E180E18000000000000DC
:100560000000000000000B02000E001E007E00F8DC
:100570001FE01FF81F7E001E000E0002000000009A
:10058000000000000000000D021006181E1E3C0FA7
:10059000F807F003E001F003F8073C0F1E1E0618F1
:1005A00002100000000000000FFE00FE0FF81F0008
:1005B0001E001EF807FE033E00FE03F807001E00A3
:1005C0001EF81FFE0FFE0000000D02001E00FE00C0
:1005D000FC03F01F801F001C801FF01FFC03FE00A7
:1005E0001E0002000000000000000B0000FE07FEDD
:1005F0000FFE1F001C00180018001CFE1FFE0FFE3F
:1006000007000000000000000000000B06000600CC
:1006100006000600FE1FFE1FFE1F06000600060065
:100620000600000000000000000000000A00003882
:10063000067C0EFE1EE61CE618EE19DE1FDC0F9887
:10064000070000000000000000000000000B000098
:10065000FE1FFE1FFE1FC600C600C603FE0F7E1F44
:100660003C1C0010000000000000000000000B0017
:1006700000F003FC0FFC0F0E1C0618061E0E1CFCDF
:100680001FFC1FF033000000000000000000000A03
:100690000000FE1FFE1FFE1FC600C600C600FE00B3
:1006A0007E003C0000000000000000000000000090
:1006B0000B0000F003FC0FFC0F0E1C061806180EB2
:1006C0001CFC0FFC0FF00300000000000000000005
:1006D000000B0000FE1FFE1FFE1F7C00F001E00368
:1006E000800FFE1FFE1FFE1F000000000000000024
:1006F00000000D0000FE1FFE1FFE1F3E00F80380DD
:100700001F801FF8033E00FE1FFE1FFE1F0000009B
:10071000000000090000FE1FFE1FFE1F0018001849
:100720000018001800180000000000000000000081
:10073000000000000D0000FE1FFE1FFE1FC000E0B5
:1007400000F000F801DC070E1F061E021800100062
:100750000000000000090006000F001F001C001828
:100760000018FE1FFE0FFE07000000000000000042
:10077000000000000000040000FE1FFE1FFE1F001E
:100780000000000000000000000000000000000069
:10079000000000000000000B0000FE1FFE1FFE1FF7
:1007A000C000C000C000C000FE1FFE1FFE1F0000F2
:1007B00000000000000000000B0000F003FC0FFC34
:1007C0000F0E1C0618C618CE1CDE1FDC0FC80F004B
:1007D000000000000000000000090000FE1FFE1FD6
:1007E000FE1FC600C600C600C600060000000000CE
:1007F000000000000000000000000A0000FE1FFED4
:100800001FFE1FC618C618C618C618C61806180038
:1008100000000000000000000000000A0000FE1FB1
:10082000FE1FFE1F061806180E1CFE1FFC0FF0030D
:100830000000000000000000000000000A0000F0BE
:1008400003FC0FFE1F0E1C06180E1C1E1F1C0E089C
:10085000060000000000000000000000000A000088
:10086000FE1FFE1FFE1FC618C618FE18BC1F981FCD
:1008700000070000000000000000000000000D0064
:1008800010001C801FE00FF807FE061E06FE06F88B
:1008900007E00F801F001C00100000000000000C8B
:1008A000E0071818C427F42F3A480A480A4CF24FB8
:1008B000FA4F7C280836F01100000000000000000C
:1008C00009000018001C009E1DC61DE61DFE007CD0
:1008D00000380000000000000000000000000000E0
:1008E000000A0000380E380E700770077007F00716
:1008F000E003E003E003000000000000000000004F
:10090000000009000070077007700770077007701B
:1009100007700770070000000000000000000000E2
:100920000000000A0000E003E003E003F0077007A6
:1009300070077007380E380E00000000000000003D
:100940000000000004000070DC707C703C000000BF
:100950000000000000000000000000000000000097
:100960000000000000040000701C701C701C0000DF
:100970000000000000000000000000000000000077
:10098000000000000000090000780CFC1CFE1D8621
:10099000198618FE1FFC0FF0030000000000000085
:1009A000000000000000000900003807FC0FFE1FD7
:1009B000C618C618FE1FFC0F380700000000000014
:1009C000000000000000000009000006000600060C
:1009D0001C861FE61FF6011E000600000000000036
:1009E000000000000000000000090000F003FC0F00
:1009F000FE1F46186618EE1FCE0F8C070000000081
:100A000000000000000000000000090000F006FEE9
:100A10000EFE1E66186618E61FC60F860700000049
:100A200000000000000000000000000A0000800339
:100A3000C003F00338031C03FE1FFE1FFE1F00034C
:100A40000000000000000000000000000900000895
:100A5000061C0E1E1EC618C618FE1FFC0F38070007
:100A6000000000000000000000000000000900007D
:100A700018181C1C1E1E061F861BFE19FC18781851
:100A8000000000000000000000000000000008005E
:100A9000000000600070003800FE1FFE1FFE1F00F7
:100AA000000000000000000000000000000000093D
:100AB0000000F807FC0FFE1F06180618FE1FFC0FAB
:100AC000F807000000000000000000000000000027
:100AD00004001880077800060000000000000000F5
:100AE0000000000000000000000000000000000006
:100AF00000040000001C001C001C0000000000009E
:100B000000000000000000000000000000000000E5
:100B10000000058003800380038003800300000041
:100B200000000000000000000000000000000000C5
:100B300000000004000000DC007C003C000000001D
:100B400000000000000000000000000000000000A5
:100B5000000000000A0000C001C001C001F80FF849
:100B60000FF80FC001C001C001000000000000002C
:100B70000000000000070000080068003E003E0082
:100B800068000800000000000000000000000000F5
:100B90000000000000000502801EF0FC7FF83FE02E
:100BA0000F00000000000000000000000000000036
:100BB00000000000000000060000E00FF83FFC7F8E
:100BC0001EF0028000000000000000000000000095
:100BD0000000000000000000031E001E001E0000B8
:100BE0000000000000000000000000000000000005
:100BF0000000000000000000000C00000007800F53
:100C00009C1FFE19FE18E619BE1F3E0F9C0F801F89
:100C1000801D00000000000000000F00003C007E6E
:100C200000420042107E0C3C0280016000100F8CDC
:100C30001F82108010801F000F00000A000038047F
:100C40007C0CFE1CE618FF3FC619CE1F8C0F0C074C
:100C50000000000000000000000000000B30063023
:100C60001EF01FFE073E063006301EF01FFE073E38
:100C700006300600000000000000000000071E0013
:100C80001E001E0000001E001E001E0000000000CE
:100C90000000000000000000000000000000040050
:100CA00000FE1DFE1DFE1D000000000000000000F3
:100CB000000000000000000000000000000000092B
:100CC0000000000000000000000000000000000024
:100CD0000000000000000000000000000000000014
:100CE00011241FBECFEFD8E0DEBFCDBF12E0A0E0E1
:100CF000B1E0EAE5F6E202C005900D92AC3BB10727
:100D0000D9F723E0ACEBB2E001C01D92A333B207E8
:100D1000E1F70E9413100C942B130C940000611542
:100D2000710561F441305105D9F42130310511F4D8
:100D300023E01CC0232BE1F422E018C061307105D0
:100D4000B9F44115510529F42130310589F425E024
:100D50000DC04130510561F4232B51F424E006C04D
:100D6000452B31F42130310519F421E02093810025
:100D700010928500109284002091840030918500AB
:100D800028173907C8F3109285001092840008953F
:100D90005E9A982F92959F709BB95E985E9A8F701D
:100DA0008BB95E981BB821E030E040E050E061E094
:100DB00070E082E390E00C948F0681E00C94C8060A
:100DC000BF92CF92DF92EF92FF920F931F93CF9338
:100DD000DF9300D000D01F92CDB7DEB710E41AB970
:100DE0008AB18F638AB921E030E040E050E061E0F1
:100DF00070E082E390E00E948F061BB98BB18360A4
:100E00008BB95E9821E030E040E050E061E070E0B6
:100E100084E690E00E948F061BB98BB183608BB98A
:100E20005E9821E030E040E050E061E070E084E670
:100E300090E00E948F068BB183608BB95E9821E0B1
:100E400030E040E050E061E070E084E690E00E9435
:100E50008F061BB921E030E040E050E061E070E037
:100E600088E893E10E948F0682E08BB921E030E0B0
:100E700040E050E061E070E088E893E10E948F0676
:100E80005E9821E030E040E050E061E070E088E80A
:100E900093E10E948F0621E030E040E050E061E005
:100EA00070E084E690E00E948F06CE0101967C01FE
:100EB00000E010E0C82EBF2C80E4D82E85E0E6ECE0
:100EC000F1E0AC2DBB2D01900D928A95E1F7F70171
:100ED00081917F01982F92959F708F70DBB89BB99D
:100EE0005E98DBB88BB95E9821E030E040E050E0DE
:100EF00061E070E00430110519F080E590E002C077
:100F000088E290E00E948F060F5F1F4F05301105A9
:100F1000A9F60F900F900F900F900F90DF91CF9147
:100F20001F910F91FF90EF90DF90CF90BF900895A9
:100F30008FE087B987E088B90895CF93C82F0E94C2
:100F40009807F8948DE284B98DB5C82BCDBD80E5A6
:100F50008CBDCF9108958EBD0DB407FEFDCF0895D1
:100F60009EBD0DB407FEFDCF8EBD0DB407FEFDCFB7
:100F700008958FEF8EBD0DB407FEFDCF8EB5089599
:100F80008FEF8EBD0DB407FEFDCF8EB590E0982F8C
:100F900088272FEF2EBD0DB407FEFDCF2EB5822B77
:100FA00008951F93CF93DF93C8EED3E018E021E0BC
:100FB00030E040E050E061E070E080E090E00E94CE
:100FC0008F0688B1812788B9219789F7DF91CF9162
:100FD0001F910895EF92FF920F931F93CF93DF938A
:100FE0007B018A01D22F98B1C1E09C2798B9806417
:100FF0000E94AB07C7010E94B007C8010E94B0075A
:101000008D2F0E94AB070E94C00728B1C227C8B924
:101010009927DF91CF911F910F91FF90EF90089545
:10102000CF92DF92EF92FF920F93CF936B017A01F1
:10103000C22F80640E94AB07C6010E94B007C7019F
:101040000E94B0078C2F0E94AB070E94B907801343
:10105000FCCFCF910F91FF90EF90DF90CF9008954C
:101060002F923F924F925F926F927F928F929F92B8
:10107000AF92BF92CF92DF92EF92FF920F931F93A6
:10108000CF93DF93CDB7DEB7A2970FB6F894DEBF4C
:101090000FBECDBF9A8B898BCDB6DEB6DE8ACD8AE8
:1010A000EDB6FEB6E81AF90A0FB6F894FEBE0FBE0A
:1010B000EDBE2DB73EB72F5F3F4F790169018DB768
:1010C0009EB78F5F9D4FF9011192E817F907E1F77D
:1010D00098B181E0892788B900E02FEF40E050E027
:1010E00060E070E081E10E9410080E94B9078E3F25
:1010F000E1F709891A890E0D1F1DC016D10631F0BE
:101100000E94B907D6018D936D01F7CF8AEA9EEE52
:101110000E94B00798B181E0892788B960910203E5
:1011200070910303209000033090010300910503A8
:1011300010910603E091FE02F091FF02FE83ED8321
:10114000C090FC02D090FD02DA82C9824091040373
:10115000C090F602D090F7028090F2029090F302D5
:10116000A090F402B090F5024090F8025090F9027D
:101170006090FA027090FB028091EE029091EF0273
:10118000A091F002B091F10289879A87AB87BC8762
:101190008091EA029091EB02A091EC02B091ED02F5
:1011A0008D879E87AF87B88BA0912103B0912203D2
:1011B000BC8BAB8B20E030E0F701BC96F88FEF8B57
:1011C000C70181509E4F9A8F898FD701A250BE4F81
:1011D000BC8FAB8F3597FE8FED8F8F5D914098A3BD
:1011E0008F8FAA5DB140BAA3A9A389899A892817CC
:1011F000390709F4A3C02B30310541F4F7016485A8
:1012000070E0762F66278385682B28C02D30310546
:1012100021F4D7011D960C9121C02E30310549F4DF
:10122000F701878590E0982F882756851C01252A8D
:1012300023C02031310521F4D70150961C9123C0E1
:101240002131310559F4F701828990E0982F8827E0
:101250005189DC01A52BBE83AD8342C0233131050A
:1012600059F4F701848990E0982F88275389FC016D
:10127000E52BFA83E98388C22531310521F4D701B2
:1012800055964C9147C026313105C9F4F70187893D
:1012900090E0982F882756896C01C52AC114D10483
:1012A00009F049C0B896BA2CA92C982C88248291B0
:1012B000882A89A19AA18E179F07A9F73CC02032DE
:1012C000310571F4F701B496762C652C542C442426
:1012D0008291482AAF8DB8A1EA17FB07A9F72BC066
:1012E0002732310509F050C2F701BB9689859A85EE
:1012F000AB85BC85BA2FA92F982F88275291852BB3
:1013000089879A87AB87BC87AD8DBE8DEA17FB07AF
:1013100069F711C02E3FB1E03B0769F4E98DFA8D02
:10132000808190E0982F8827AB8DBC8D5C91FC016B
:10133000E52BFC8BEB8B2F5F3F4F57CF89859A8531
:10134000AB85BC858093EE029093EF02A093F002F0
:10135000B093F1028D859E85AF85B8898093EA02AE
:101360009093EB02A093EC02B093ED028092F20214
:101370009092F302A092F402B092F5024092F80229
:101380005092F9026092FA027092FB0200930503F8
:10139000309201032092000310930603AD81BE81B9
:1013A000B093FF02A093FE027093030360930203C5
:1013B00040930403EB89FC89F0932203E09321031B
:1013C000E980FA80F092FD02E092FC02CD0135E066
:1013D000880F991F3A95E1F79B0121503109820F3F
:1013E000931F0E94DB127B017093E9026093E80275
:1013F000C114D10449F48092E4029092E502A092D3
:10140000E602B092E7020BC0C601A0E0B0E0809314
:10141000E4029093E502A093E602B093E7022981EB
:101420003A81232B49F44092E0025092E10260920B
:10143000E2027092E3020DC049815A81CA01A0E024
:10144000B0E08093E0029093E102A093E202B093B7
:10145000E3024090E0025090E1026090E20270905E
:10146000E3024092D4025092D5026092D60270926A
:10147000D702B10180E090E069837A838B839C83FB
:10148000812E912CA12CB12CC701A0E0B0E089875E
:101490009A87AB87BC87A301920169817A818B818E
:1014A0009C81261B370B480B590B2D833E834F83A2
:1014B00058876091E4027091E5028091E602909174
:1014C000E702A50194010E94CB122D813E814F813C
:1014D0005885261B370B480B590BCA01B9012985C2
:1014E0003A854B855C85621B730B840B950B60936F
:1014F000DC027093DD028093DE029093DF02202FE6
:1015000030E040E050E00E94EF122093D802309388
:10151000D9024093DA025093DB02243F6FE0360792
:101520004105510528F48CE090E0A0E0B0E00EC049
:10153000263431054140510528F480E190E0A0E0D7
:10154000B0E004C080E290E0A0E0B0E08093C00290
:101550009093C102A093C202B093C302C10101974C
:10156000E80EF91ED301C2018E199F09A109B10924
:101570006C017D018093D0029093D102A093D2029E
:10158000B093D302802F90E0982F8827810F911D70
:101590002C01990F660877084092CC025092CD0238
:1015A0006092CE027092CF02D301C2010197A109CD
:1015B000B109BC01CD016C0D7D1D8E1D9F1DA301C8
:1015C00092010E94EF122093BC023093BD0240931F
:1015D000BE025093BF022091C0023091C1024091DF
:1015E000C2025091C3022D833E834F83588720321D
:1015F000310541055105A1F4C301B2010E94D0118A
:1016000020E030E040E05FE30E945E120E94A11102
:101610006093CC027093CD028093CE029093CF0260
:101620002091CC023091CD024091CE025091CF0258
:10163000DA01C9010197A109B109BC01CD016C0D05
:101640007D1D8E1D9F1D0E94EF12CA01B9012093BE
:10165000E4023093E5024093E6025093E7022D81C5
:101660003E814F8158852032310541055105A9F54C
:101670001092F7021092F6026093F2027093F30256
:101680008093F4029093F502A50194010E94CB127D
:10169000C980DA80EB80FC80C60ED71EE81EF91EDA
:1016A000D701C60197018601CD84DE84EF84F888D6
:1016B0000C191D092E093F090093C8021093C90295
:1016C0002093CA023093CB0209851A852B853C856D
:1016D0000C191D092E093F092BC07093F702609366
:1016E000F602212F30E0269F8001279F100D369FA4
:1016F000100D1124020D131D20E030E00093C802EC
:101700001093C9022093CA023093CB02A501940121
:101710000E94CB1209811A812B813C81C984DA8411
:10172000EB84FC840C0D1D1D2E1D3F1DDC01CB0127
:10173000800F911FA21FB31F8093C4029093C50214
:10174000A093C602B093C702ED88FE880FB6F89446
:10175000FEBE0FBEEDBEA2960FB6F894DEBF0FBE62
:10176000CDBFDF91CF911F910F91FF90EF90DF9050
:10177000CF90BF90AF909F908F907F906F905F9031
:101780004F903F902F9008952C32310509F0C2CD33
:10179000F701F0968D859E85AF85B889BA2FA92F60
:1017A000982F88275291852B8D879E87AF87B88B7E
:1017B000AF89B88DEA17FB0769F7BDCD1F93CF93AB
:1017C000DF93182F88B1D4E08D2788B988B1C2E0A3
:1017D0008C2788B921E030E040E050E061E070E023
:1017E00080E090E00E948F06812F0E94AB0788B1B5
:1017F000D827D8B988B1C827C8B9DF91CF911F9130
:101800000895EF92FF920F931F93CF93DF93182FBA
:10181000D62F7A0198B184E0892788B988B1C2E0CF
:101820008C2788B921E030E040E050E061E070E0D2
:1018300080E090E00E948F06812F0E94AB0788B164
:10184000C827C8B98701CD2FD0E0C8018E199F09DC
:10185000C817D90731F0F80181918F010E94AB07B9
:10186000F4CF98B184E0892788B9DF91CF911F9197
:101870000F91FF90EF90089589E20C94DE0B8F9208
:101880009F92AF92BF92CF92DF92EF92FF920F930F
:101890001F93CF93DF931F92CDB7DEB75C016B012F
:1018A0007A01022F98B184E0892788B988B112E0C3
:1018B000812788B98CE20E94AB070983AE014F5F94
:1018C0005F4F61E086E30E94010C88B1182718B9C8
:1018D000AC9C4001AD9C900CBC9C900C112400E091
:1018E00010E00815190531F0C7010E94B0070F5F1D
:1018F0001F4FF7CF98B182E0892788B90F90DF9109
:10190000CF911F910F91FF90EF90DF90CF90BF90FC
:10191000AF909F908F9008952F923F924F925F9239
:101920006F927F928F929F92AF92BF92CF92DF92EF
:10193000EF92FF920F931F93CF93DF93CDB7DEB754
:10194000CE58D1090FB6F894DEBF0FBECDBF4C0103
:101950005B01C357DF4FE882CD58D040C257DF4FFD
:10196000C882CE58D040CC57DF4F59834883C458E3
:10197000D040CE57DF4F39832883C258D0400197DB
:10198000CA57DF4F99838883C658D040CB0101974F
:10199000C857DF4F99838883C858D0408AE2C6571A
:1019A000DF4F8883CA58D0408BE2C557DF4F88830A
:1019B000CB58D040CE0186579F4F3C01FE01EE57D9
:1019C000FF4F7F0104972C011F0194E0290E311C69
:1019D00088B1E4E08E2788B988B1F2E08F2788B912
:1019E000F30181913F010E94AB0788B1F2E08F279C
:1019F00088B9F701C190D1907F01C6010E94B0075C
:101A0000F201819191912F018C0D9D1D0E94B007D3
:101A100088B1F4E08F2788B9E214F304C9F6C357FC
:101A2000DF4F8881CD58D040C457DF4F8883CC58D2
:101A3000D040AE0144575F4F61E086E30E94010C45
:101A400098B184E0892788B988B192E0892788B95C
:101A50008CE20E94AB0788B1E2E08E2788B9C257BA
:101A6000DF4F8881CE58D040E82FF0E0EE0FFF1F07
:101A7000EA53FF4F0190F081E02DDE011196CF0176
:101A80008F579F4F24912D9331968E179F07D1F733
:101A90008A9C70018B9CF00C9A9CF00C1124C12C38
:101AA000D12CA12CB12CCE14DF0409F1E2E0F0E03E
:101AB000EC0FFD1FEA0DF11D808190E00B2C02C0A0
:101AC000959587950A94E2F78170B39498E0B912DE
:101AD00002C0A394B12C813011F4C80102C08FEF71
:101AE0009FEF0E94B007EFEFCE1ADE0ADCCF87E04F
:101AF00088B9C257DF4F0FB6F894DEBF0FBECDBF17
:101B0000DF91CF911F910F91FF90EF90DF90CF90D9
:101B1000BF90AF909F908F907F906F905F904F900D
:101B20003F902F9008952F923F924F925F926F9225
:101B30007F928F929F92AF92BF92CF92DF92EF925D
:101B4000FF920F931F93CF93DF932C015B014A0108
:101B50003901212CF201E20DF11D30803320A9F171
:101B6000C32CD12CF601EE0FFF1FEA53FF4F01905B
:101B7000F081E02DE491CE2FD0E09CE0E92EF12C15
:101B800000E01FE09401A501BE01C3010E948C0C7E
:101B900081E090E020E2321202C080E090E0A80EE6
:101BA000B91EAC0EBD1E81E4A81681E0B80628F06F
:101BB00020E2820E911CA12CB12C81EF8816910499
:101BC00010F0812C912C2394C5CFDF91CF911F91E0
:101BD0000F91FF90EF90DF90CF90BF90AF909F90CC
:101BE0008F907F906F905F904F903F902F900895CF
:101BF0002F923F924F925F926F927F928F929F921D
:101C0000AF92BF92CF92DF92EF92FF920F931F930A
:101C1000CF93DF93CDB7DEB765970FB6F894DEBFED
:101C20000FBECDBF2B013C011A0149018CE0EBEC4A
:101C3000F1E0DE01119601900D928A95E1F75E01C7
:101C40002DE0A20EB11C89E0D5011D928A95E9F71D
:101C5000C301B2010E94A1116B017C018B0180E0E4
:101C600090E00E94D0119B01AC01C301B2010E941F
:101C7000341120E030E048EC52E40E945E120E94F1
:101C8000A111762EC114D10409F078C080E38D87AC
:101C900042E0772009F452C0272D30E0ECE0F0E07C
:101CA000EC0FFD1FE40FF11D8EE28083DD24D39441
:101CB000D40EC9010A978A35910550F54D5FE42E7F
:101CC000F12CD416D9F1ED2DF0E0D701AE1BBF0BEE
:101CD0001197AA0FBB1F81E090E08C0F9D1FA80FEA
:101CE000B91F0D911C91C901B8010E94DB12609FC0
:101CF000C001619F900D1124281B390BACE0B0E0AE
:101D0000AC0FBD1FEA0FFB1F605D6083D394D9CF7A
:101D1000215031092930310588F4ECE0F0E0EC0F76
:101D2000FD1FED0DF11D80E380834E5FECE0F0E0E0
:101D3000EC0FFD1FE40FF11D870D808320E130E0E3
:101D4000A401B101C5010E94930D65960FB6F894E8
:101D5000DEBF0FBECDBFDF91CF911F910F91FF90DE
:101D6000EF90DF90CF90BF90AF909F908F907F903B
:101D70006F905F904F903F902F900895C6018051D3
:101D800097428D3C984D10F1C601885E9340883291
:101D9000B3E29B07A8F08C579C4F8438E3E09E0782
:101DA00088F0865A9F4F8A35910570F0F1E0CF1A7E
:101DB000D10841E029E0C216D10448F040E007C054
:101DC00044E005C043E003C042E001C045E04F5F8E
:101DD000FE013196E40FF11DE40FF11D34979501DA
:101DE000DD24D394D41609F454CFE080F180C801E7
:101DF000B7010E94DB126E9DC0016F9D900D1124F2
:101E0000081B190B605DD9016D939D01D394329726
:101E1000E9CF2F923F924F925F926F927F928F9273
:101E20009F92AF92BF92CF92DF92EF92FF920F9369
:101E30001F93CF93DF93CDB7DEB72B970FB6F894F0
:101E4000DEBF0FBECDBF5C013B01EB865A834983E9
:101E50003C832B8301979E838D83CB0101979887C9
:101E60008F838AE289878BE28A872E0189E0480E78
:101E7000511CFE0131967F016E01F5E0CF0ED11CA1
:101E8000160188B194E0892788B988B1E2E08E27ED
:101E900088B9F20181912F010E94AB0788B1F2E06D
:101EA0008F2788B9F701819091907F01C4010E942A
:101EB000B007F601819191916F01880D991D0E94E3
:101EC000B00788B1F4E08F2788B9E214F304C9F6AB
:101ED0002B85A801B301C5010E943F0C87E088B99A
:101EE0002B960FB6F894DEBF0FBECDBFDF91CF911A
:101EF0001F910F91FF90EF90DF90CF90BF90AF9028
:101F00009F908F907F906F905F904F903F902F9019
:101F100008954F925F926F927F928F929F92AF92AD
:101F2000BF92CF92DF92EF92FF920F931F93CF93C6
:101F3000DF932C014B015A01E901680137018CE064
:101F4000E82E83019A01AE01B601C2010E94090F79
:101F50009401215031092A0D3B1DAE01B601C20189
:101F60000E94090F9501AE01B401C6010E94090F3C
:101F70002197AE01440D551D9501B401C6010E9483
:101F8000090FDF91CF911F910F91FF90EF90DF909C
:101F9000CF90BF90AF909F908F907F906F905F9009
:101FA0004F90089597B117B898B1906398B961159B
:101FB000710551F441155105A1F041305105B1F4BD
:101FC0009091B900916010C06130710579F44115AC
:101FD000510521F49091B900926006C0413051053D
:101FE00029F49091B90093609093B9008093B80060
:101FF0008091BC0084608093BC0008958091BC00F7
:1020000087FFFCCF089584EC8093BC000E94FE0FF4
:102010008091BB00089584E88093BC000E94FE0F6D
:102020008091BB00089557980E94980780E00E9415
:102030009D070E94D1070E943C0C81E00E94DE0BAC
:102040000E943C0C0E94E0060E94DD0625E940E06B
:1020500050E060E070E080E00E94EA072FEF40E08F
:1020600050E060E070E081E00E94EA072FEF40E07E
:1020700052E060E070E080E10E94EA0780E092E0D8
:102080000E943008C1E0D0E0EE24EA94FE2C01E08A
:1020900010E02AED30E04EE650E0BE0184E190E031
:1020A0000E94890F2196CA35D10571F72CED30E0D9
:1020B0004EE650E060E070E0CB010E94F80D61E375
:1020C000C62ED12CC1E0D0E0EE24EA94FE2C01E033
:1020D00010E0960140E050E0BE0184E190E00E94F3
:1020E000890F2196C436D10579F781E3C80ED11C3A
:1020F00084ECC816D10431F7C0E0D1E002E310E06F
:10210000A0EBB2E0E991F9918C91882321F08491C0
:102110008D933196F9CF20E130E0A80162E070E0C4
:1021200080EB92E00E94930D0E5C1F4F083C11055E
:1021300039F740E050E060E070E084E00E94D20FA8
:1021400021E030E040E050E061E070E089E190E0C3
:102150000E948F06C12CD12CC1E0D4EA91E4B92EA3
:1021600024E8A22E34E9932E41E3842ED093BC00C0
:102170000E94FE0FB092BB00A092BC000E94FE0F16
:1021800021E030E040E050E061E070E082E390E088
:102190000E948F060E940310082F0E94FE0F0E94CB
:1021A0000B10F82E0E94FE0F9092BC0010E01F2929
:1021B00020E130E04CED50E06EE670E083E792E025
:1021C0000E94930DB60180E090E00E94D0112CEDAA
:1021D00030E04EE650E00E94F80D21E030E040E0B3
:1021E00050E061E070E088E893E10E948F068FEF95
:1021F000C81AD80A0130110509F0B8CFC130C1F0B2
:102200008C2F90E00197889E9001899E300D1124BB
:10221000EE24EA94FE2C01E010E040E050E064E699
:1022200070E084E190E00E94890FC43008F0C1E0C2
:1022300021E030E040E050E061E070E088E893E1C8
:102240000E948F0681E3C89F90011124E12CF12C9C
:1022500001E010E040E050E064E670E084E190E0EE
:102260000E94890FCF5F82CF5058BB27AA270E94B8
:102270004C110C9424120E94161238F00E941D1268
:1022800020F039F49F3F19F426F40C9413120EF445
:10229000E095E7FB0C940D12E92F0E94351258F3DC
:1022A000BA17620773078407950720F079F4A6F53B
:1022B0000C9457120EF4E0950B2EBA2FA02D0B01A3
:1022C000B90190010C01CA01A0011124FF27591B7B
:1022D00099F0593F50F4503E68F11A16F040A22F81
:1022E000232F342F4427585FF3CF469537952795F2
:1022F000A795F0405395C9F77EF41F16BA0B620BF1
:10230000730B840BBAF09150A1F0FF0FBB1F661F37
:10231000771F881FC2F70EC0BA0F621F731F841F7A
:1023200048F4879577956795B795F7959E3F08F0A0
:10233000B0CF9395880F08F09927EE0F9795879562
:1023400008950E943D1288F09F5798F0B92F992761
:10235000B751B0F0E1F0660F771F881F991F1AF090
:10236000BA95C9F714C0B13091F00E945712B1E08C
:1023700008950C945712672F782F8827B85F39F08B
:10238000B93FCCF3869577956795B395D9F73EF429
:1023900090958095709561957F4F8F4F9F4F0895D1
:1023A000E89409C097FB3EF49095809570956195EF
:1023B0007F4F8F4F9F4F9923A9F0F92F96E9BB27A5
:1023C0009395F695879577956795B795F111F8CF21
:1023D000FAF4BB0F11F460FF1BC06F5F7F4F8F4F8C
:1023E0009F4F16C0882311F096E911C0772321F082
:1023F0009EE8872F762F05C0662371F096E8862F1A
:1024000070E060E02AF09A95660F771F881FDAF770
:10241000880F9695879597F9089597F99F6780E8B3
:1024200070E060E008959FEF80EC089500240A9426
:102430001616170618060906089500240A9412169F
:102440001306140605060895092E0394000C11F4D2
:10245000882352F0BB0F40F4BF2B11F460FF04C07F
:102460006F5F7F4F8F4F9F4F089557FD9058440FD8
:10247000551F59F05F3F71F04795880F97FB991FE3
:1024800061F09F3F79F087950895121613061406A0
:10249000551FF2CF4695F1DF08C01616170618062D
:1024A000991FF1CF86957105610508940895E89408
:1024B000BB2766277727CB0197F908950E947112F1
:1024C0000C9424120E94161238F00E941D1220F063
:1024D000952311F00C940D120C94131211240C94EA
:1024E00058120E94351270F3959FC1F3950F50E07A
:1024F000551F629FF001729FBB27F00DB11D639FB6
:10250000AA27F00DB11DAA1F649F6627B00DA11D5B
:10251000661F829F2227B00DA11D621F739FB00D01
:10252000A11D621F839FA00D611D221F749F332771
:10253000A00D611D231F849F600D211D822F762F0A
:102540006A2F11249F5750409AF0F1F088234AF0E7
:10255000EE0FFF1FBB1F661F771F881F9150504053
:10256000A9F79E3F510580F00C940D120C9458125F
:102570005F3FE4F3983ED4F3869577956795B795DA
:10258000F795E7959F5FC1F7FE2B880F911D9695F4
:10259000879597F90895DB018F939F930E941113FC
:1025A000BF91AF91A29F800D911DA39F900DB29FEF
:1025B000900D11240895AA1BBB1B51E107C0AA1F4F
:1025C000BB1FA617B70710F0A61BB70B881F991FD4
:1025D0005A95A9F780959095BC01CD010895A1E287
:1025E0001A2EAA1BBB1BFD010DC0AA1FBB1FEE1F8D
:1025F000FF1FA217B307E407F50720F0A21BB30BD8
:10260000E40BF50B661F771F881F991F1A9469F753
:1026100060957095809590959B01AC01BD01CF01AF
:1026200008950E941C13A59F900DB49F900DA49F28
:10263000800D911D11240895A29FB001B39FC00188
:10264000A39F700D811D1124911DB29F700D811DDE
:0A2650001124911D0895F894FFCFA6
:10265A00780070006800BF0C9E0C7D0C5C0C3B0C73
:10266A001A0CF90BD80BB70B960B750B540B330BD3
:10267A00120BF10AD00AAF0A8E0A6D0A4C0A2B0A0B
:10268A000A0AE909C809A709860965094409230943
:10269A000209E108C0089F087E085D083C081B087B
:1026AA00FA07D907B80797077607550734071307B4
:1026BA00F206D106B0068F066E064D062C060B06EC
:1026CA00EA05C905A8058705660545052405030524
:1026DA00E204C104A0047F045E043D041C04FB035D
:1026EA00DA03B90398037703560335031403F30295
:1026FA00D202B10290026F024E022D020C02EB01CD
:10270A00CA01A90188016701460125010401E30004
:10271A00C200A10080002B2B0F010601000A0064F1
:10272A0000E8031027FFFF5D00005B235365632A5F
:10273A00436C75733A000023436C75737465727346
:10274A003A00005B4D696C5D0000564F4C554D4593
:10275A004E3A00005B4D425D000023534543544FFF
:10276A0052533A0000235365635F4426463A0000F9
:10277A005B4445435D00002353656352657365728C
:10278A00763A0000235052494D455220534543544E
:10279A004F52204441544F530000235052494D4553
:1027AA00522053454320444952205241495A00007D
:1027BA0023427974657320506F7220536563746F76
:1027CA0072000020202020202020202020202020ED
:1027DA0020202020202020202020202020202020EF
:1027EA00202020200000594553004E4F54004641F6
:1027FA00543A0023464154733A00234D42523A0058
:0C280A0020202020202020202020200062
:00000001FF
