:100000000C9434000C9451000C9451000C94510049
:100010000C9451000C9451000C9451000C9451001C
:100020000C9451000C9451000C9451000C9451000C
:100030000C9451000C9451000C9451000C945100FC
:100040000C9451000C9451000C9451000C945100EC
:100050000C9451000C9451000C9451000C945100DC
:100060000C9451000C94510011241FBECFEFD8E026
:10007000DEBFCDBF11E0A0E0B1E0EAE4F9E002C0EC
:1000800005900D92A830B107D9F721E0A8E0B1E0C2
:1000900001C01D92AC31B207E1F70E94E7020C9457
:1000A000A3040C94000084EC8093BC008091BB00FE
:1000B000089584E88093BC008091BB00089597B1B7
:1000C00017B898B1906398B96115710591F441150D
:1000D000510531F4E9EBF0E09081936090831DC00D
:1000E00041305105D1F4E9EBF0E0908191609083CB
:1000F00014C06130710589F44115510531F4E9EB03
:10010000F0E090819260908308C04130510529F45D
:10011000E9EBF0E09081936090838093B800ECEB82
:10012000F0E08081846080830895ECEBF0E08081D2
:100130008823ECF7089517B88FE084B9EAE7F0E078
:10014000808183608083EEE7F0E080818760808338
:10015000E1E8F0E080818460808310928500109255
:100160008400089510927C0080EC80937A00EAE786
:10017000F0E0808186FDFDCFEAE7F0E080818F77B7
:100180008083609178007091790070931B01609377
:100190001A0180E090E00E947F0320E030E040E41C
:1001A0005BE30E94C103609312017093130180937B
:1001B000140190931501ECE7F0E0808110822AE9A8
:1001C00039E949E95FE3609112017091130180916F
:1001D0001401909115010E94BC03181664F48091DB
:1001E000060190910701019799F41092070110926E
:1001F0000601289A08958091060190910701892BA4
:1002000039F481E090E090930701809306012898EB
:10021000089581E080937C0080EC80937A00EAE787
:10022000F0E0808186FDFDCFEAE7F0E080818F7706
:1002300080836091780070917900709319016093C8
:10024000180180E090E00E947F0320E030E040E46D
:100250005BE30E94C10360930E0170930F018093D2
:10026000100190931101ECE7F0E08081108220E012
:1002700030E040E250E460910E0170910F018091F6
:100280001001909111010E94BC03181664F4809132
:10029000040190910501019799F4109205011092C3
:1002A0000401299A08958091040190910501892BF8
:1002B00039F481E090E0909305018093040129983E
:1002C000089582E080937C0080EC80937A00EAE7D6
:1002D000F0E0808186FDFDCFEAE7F0E080818F7756
:1002E000808360917800709179007093170160931A
:1002F000160180E090E00E947F0320E030E040E4BF
:100300005BE30E94C10360930A0170930B01809329
:100310000C0190930D01ECE7F0E08081108220E069
:1003200030E040EC5FE360910A0170910B01809135
:100330000C0190910D010E94BC03181664F4809189
:10034000020190910301019799F410920301109218
:1003500002012A9A08958091020190910301892B4C
:1003600039F481E090E090930301809302012A9890
:100370000895CF93C1E020E030E040E250E4609186
:100380000E0170910F0180911001909111010E9456
:10039000BC0388230CF4C0E0CC2301F1C1E02AE9BE
:1003A00039E949E95FE3609112017091130180918D
:1003B0001401909115010E94BC0388230CF4C0E045
:1003C000CC2361F08091000190910101019799F493
:1003D00010920101109200012B9A0DC08091000132
:1003E00090910101892B39F481E090E09093010113
:1003F000809300012B98CF910895DF92EF92FF92A6
:100400000F931F93CF93DF93182FD62ECCEBD0E012
:1004100004EA08830E9495000F2EFBEBEF2EF12CCF
:10042000F02DF701108314E818830E9495008AEAE2
:10043000F701808318830E9495000883F701D0821A
:1004400018830E9495000E9453000E9495000E940C
:1004500059000E949500DF91CF911F910F91FF905D
:10046000EF90DF900895DF92EF92FF920F931F932A
:10047000CF93DF93182FD62E042FCCEBD0E084EA55
:1004800088830E9495000F2EFBEBEF2EF12CF02DB0
:10049000F701108314E818830E94950081EAF701A0
:1004A000808318830E949500F701D08218830E94F0
:1004B0009500F701008318830E949500DF91CF918A
:1004C0001F910F91FF90EF90DF900895DF92EF92D0
:1004D000FF920F931F93CF93DF93182FD62E042FE5
:1004E000CCEBD0E084EA88830E9495000F2EFBEBD2
:1004F000EF2EF12CF02DF701108314E818830E94E1
:10050000950082EAF701808318830E949500F70125
:10051000D08218830E949500F701008318830E94FF
:100520009500DF91CF911F910F91FF90EF90DF9099
:100530000895EF92FF920F931F93CF93DF93182F9D
:10054000062FCCEBD0E084EA88830E9495000F2E22
:10055000FBEBEF2EF12CF02DF701108314E818833C
:100560000E9495008CEAF701808318830E94950011
:10057000F701008318830E949500DF91CF911F91AE
:100580000F91FF90EF900895EF92FF921F93CF93FA
:10059000DF93182FCCEBD0E084EA88830E9495008B
:1005A0000F2EFBEBEF2EF12CF02DF701108314E84A
:1005B00018830E9495008EEEF701808318830E94B5
:1005C0009500DF91CF911F91FF90EF9008950E94C9
:1005D0009B0040E050E060E070E083E00E945F003C
:1005E00062E080E90E949902CCEBD0E014E9188324
:1005F00040E064E180E90E943302188340E06FE04C
:1006000080E90E946602188380E90E94C402188370
:1006100062E082E90E949902188340E06FE082E97B
:100620000E943302188340E06AE082E90E94660279
:10063000188382E90E94C4021883C4E8D0E00CEB5E
:1006400010E00F2EF4E9FF2EF02D8091080190911B
:100650000901892B91F41982188288819981843447
:100660009641D8F31982188280910801909109016E
:100670000196909309018093080161E980E90E9445
:10068000FD01F801F08219821882888199818436EF
:100690009105D8F31982188263E982E90E94FD016D
:1006A000F801F0820E94B200198218828881998133
:1006B00084369105D8F3198218820E9409011982A3
:1006C00018828881998184369105D8F3198218821D
:1006D0000E9461011982188288819981843691056E
:1006E000D8F3198218820E94B90119821882888170
:1006F000998184369105D8F319821882A6CFE8949F
:1007000009C097FB3EF490958095709561957F4F59
:100710008F4F9F4F9923A9F0F92F96E9BB27939507
:10072000F695879577956795B795F111F8CFFAF417
:10073000BB0F11F460FF1BC06F5F7F4F8F4F9F4F48
:1007400016C0882311F096E911C0772321F09EE8A6
:10075000872F762F05C0662371F096E8862F70E00C
:1007600060E02AF09A95660F771F881FDAF7880FE6
:100770009695879597F908950E942E0408F48FEFB7
:1007800008950E94D4030C9469040E945B0438F01D
:100790000E94620420F0952311F00C9452040C94F2
:1007A000580411240C949D040E947A0470F3959FC0
:1007B000C1F3950F50E0551F629FF001729FBB2758
:1007C000F00DB11D639FAA27F00DB11DAA1F649FF4
:1007D0006627B00DA11D661F829F2227B00DA11DA7
:1007E000621F739FB00DA11D621F839FA00D611D2D
:1007F000221F749F3327A00D611D231F849F600D4E
:10080000211D822F762F6A2F11249F5750409AF076
:10081000F1F088234AF0EE0FFF1FBB1F661F771F02
:10082000881F91505040A9F79E3F510580F00C94CD
:1008300052040C949D045F3FE4F3983ED4F38695F4
:1008400077956795B795F795E7959F5FC1F7FE2B6D
:10085000880F911D9695879597F90895990F00082F
:10086000550FAA0BE0E8FEEF16161706E807F90782
:10087000C0F012161306E407F50798F0621B730B1D
:10088000840B950B39F40A2661F0232B242B252B9E
:1008900021F408950A2609F4A140A6958FEF811D41
:1008A000811D089597F99F6780E870E060E00895E2
:1008B0009FEF80EC089500240A9416161706180678
:1008C0000906089500240A94121613061406050654
:1008D0000895092E0394000C11F4882352F0BB0FE5
:1008E00040F4BF2B11F460FF04C06F5F7F4F8F4F48
:1008F0009F4F089557FD9058440F551F59F05F3F83
:1009000071F04795880F97FB991F61F09F3F79F031
:1009100087950895121613061406551FF2CF4695B3
:10092000F1DF08C0161617061806991FF1CF869535
:100930007105610508940895E894BB276627772719
:0A094000CB0197F90895F894FFCF5A
:08094A000100010001000100A1
:00000001FF
